{
  "transactions": [
    {
      "hash": "0x48c0df9624b57e23100a52cf2f05dc7283a6d13c4c977e8ce12d99f9121a9a7f",
      "transactionType": "CALL",
      "contractName": null,
      "contractAddress": "0x5c1d33d3a62e95e2e8ff7d41f9c00da23828215e",
      "function": "mintNft(string)",
      "arguments": [
        "\"ipfs://bafybeig37ioir76s7mg5oobetncojcm3c3hxasyd4rvid4jqhy4gkaheg4/?filename=0-PUG.json\""
      ],
      "transaction": {
        "from": "0x2906145cb1c12cb788b442c84dac45c6001a8f3d",
        "to": "0x5c1d33d3a62e95e2e8ff7d41f9c00da23828215e",
        "gas": "0x3d623",
        "value": "0x0",
        "input": "0xda86f4a900000000000000000000000000000000000000000000000000000000000000200000000000000000000000000000000000000000000000000000000000000057697066733a2f2f62616679626569673337696f6972373673376d67356f6f6265746e636f6a636d3363336878617379643472766964346a71687934676b61686567342f3f66696c656e616d653d302d5055472e6a736f6e000000000000000000",
        "nonce": "0xa",
        "chainId": "0xaa36a7"
      },
      "additionalContracts": [],
      "isFixedGasLimit": false
    }
  ],
  "receipts": [
    {
      "status": "0x1",
      "cumulativeGasUsed": "0x116889b",
      "logs": [
        {
          "address": "0x5c1d33d3a62e95e2e8ff7d41f9c00da23828215e",
          "topics": [
            "0xddf252ad1be2c89b69c2b068fc378daa952ba7f163c4a11628f55a4df523b3ef",
            "0x0000000000000000000000000000000000000000000000000000000000000000",
            "0x0000000000000000000000002906145cb1c12cb788b442c84dac45c6001a8f3d",
            "0x0000000000000000000000000000000000000000000000000000000000000000"
          ],
          "data": "0x",
          "blockHash": "0xc7057400162bda4a3b1ba12684631e26f461d29dd8cea0e0e61e0f4d9b8595c7",
          "blockNumber": "0x63b39e",
          "transactionHash": "0x48c0df9624b57e23100a52cf2f05dc7283a6d13c4c977e8ce12d99f9121a9a7f",
          "transactionIndex": "0x5f",
          "logIndex": "0x15c",
          "removed": false
        }
      ],
      "logsBloom": "0x00000000000000000000000000000000000000000000000000000000000000000000000000000000000000000000000000000000000000000000000000000000000040000000000000000008000000000000000000000000000000000000000000000000020000000000000000000a00000000000000000800000010000000000000000000000000000000000000000000000000000000000000000000000000000000040000000000000000000000000000000000000000000000000000000000000002000000000000000000000000000000000000000000000002000020000000000000000000000000000000000000000000000100000000000000000000",
      "type": "0x2",
      "transactionHash": "0x48c0df9624b57e23100a52cf2f05dc7283a6d13c4c977e8ce12d99f9121a9a7f",
      "transactionIndex": "0x5f",
      "blockHash": "0xc7057400162bda4a3b1ba12684631e26f461d29dd8cea0e0e61e0f4d9b8595c7",
      "blockNumber": "0x63b39e",
      "gasUsed": "0x2c70e",
      "effectiveGasPrice": "0x1a503024e",
      "from": "0x2906145cb1c12cb788b442c84dac45c6001a8f3d",
      "to": "0x5c1d33d3a62e95e2e8ff7d41f9c00da23828215e",
      "contractAddress": null
    }
  ],
  "libraries": [],
  "pending": [],
  "returns": {},
  "timestamp": 1724119789,
  "chain": 11155111,
  "commit": "cabd27c"
}